{
  "_format": "hh-sol-artifact-1",
  "contractName": "AgentJury",
  "sourceName": "src/AgentJury.sol",
  "abi": [
    {
      "inputs": [],
      "stateMutability": "nonpayable",
      "type": "constructor"
    },
    {
      "anonymous": false,
      "inputs": [
        {
          "indexed": false,
          "internalType": "bool",
          "name": "required",
          "type": "bool"
        }
      ],
      "name": "AttestationRequirementUpdated",
      "type": "event"
    },
    {
      "anonymous": false,
      "inputs": [
        {
          "indexed": true,
          "internalType": "address",
          "name": "newAttestor",
          "type": "address"
        }
      ],
      "name": "AttestorUpdated",
      "type": "event"
    },
    {
      "anonymous": false,
      "inputs": [
        {
          "indexed": true,
          "internalType": "address",
          "name": "previousOwner",
          "type": "address"
        },
        {
          "indexed": true,
          "internalType": "address",
          "name": "newOwner",
          "type": "address"
        }
      ],
      "name": "OwnershipTransferred",
      "type": "event"
    },
    {
      "anonymous": false,
      "inputs": [
        {
          "indexed": true,
          "internalType": "uint256",
          "name": "index",
          "type": "uint256"
        },
        {
          "indexed": true,
          "internalType": "bytes32",
          "name": "caseHash",
          "type": "bytes32"
        },
        {
          "indexed": true,
          "internalType": "address",
          "name": "submitter",
          "type": "address"
        },
        {
          "indexed": false,
          "internalType": "uint8",
          "name": "feasibilityScore",
          "type": "uint8"
        },
        {
          "indexed": false,
          "internalType": "uint8",
          "name": "innovationScore",
          "type": "uint8"
        },
        {
          "indexed": false,
          "internalType": "uint8",
          "name": "riskScore",
          "type": "uint8"
        },
        {
          "indexed": false,
          "internalType": "uint8",
          "name": "finalScore",
          "type": "uint8"
        },
        {
          "indexed": false,
          "internalType": "string",
          "name": "shortVerdict",
          "type": "string"
        }
      ],
      "name": "VerdictSaved",
      "type": "event"
    },
    {
      "anonymous": false,
      "inputs": [
        {
          "indexed": false,
          "internalType": "bool",
          "name": "enabled",
          "type": "bool"
        }
      ],
      "name": "WriteAccessRestrictionUpdated",
      "type": "event"
    },
    {
      "anonymous": false,
      "inputs": [
        {
          "indexed": true,
          "internalType": "address",
          "name": "writer",
          "type": "address"
        },
        {
          "indexed": false,
          "internalType": "bool",
          "name": "authorized",
          "type": "bool"
        }
      ],
      "name": "WriterAuthorizationUpdated",
      "type": "event"
    },
    {
      "inputs": [],
      "name": "SAVE_COOLDOWN",
      "outputs": [
        {
          "internalType": "uint256",
          "name": "",
          "type": "uint256"
        }
      ],
      "stateMutability": "view",
      "type": "function"
    },
    {
      "inputs": [],
      "name": "attestationRequired",
      "outputs": [
        {
          "internalType": "bool",
          "name": "",
          "type": "bool"
        }
      ],
      "stateMutability": "view",
      "type": "function"
    },
    {
      "inputs": [],
      "name": "attestor",
      "outputs": [
        {
          "internalType": "address",
          "name": "",
          "type": "address"
        }
      ],
      "stateMutability": "view",
      "type": "function"
    },
    {
      "inputs": [
        {
          "internalType": "address",
          "name": "",
          "type": "address"
        }
      ],
      "name": "authorizedWriters",
      "outputs": [
        {
          "internalType": "bool",
          "name": "",
          "type": "bool"
        }
      ],
      "stateMutability": "view",
      "type": "function"
    },
    {
      "inputs": [
        {
          "internalType": "uint256",
          "name": "limit",
          "type": "uint256"
        }
      ],
      "name": "getLatestVerdicts",
      "outputs": [
        {
          "components": [
            {
              "internalType": "bytes32",
              "name": "caseHash",
              "type": "bytes32"
            },
            {
              "internalType": "uint8",
              "name": "feasibilityScore",
              "type": "uint8"
            },
            {
              "internalType": "uint8",
              "name": "innovationScore",
              "type": "uint8"
            },
            {
              "internalType": "uint8",
              "name": "riskScore",
              "type": "uint8"
            },
            {
              "internalType": "uint8",
              "name": "finalScore",
              "type": "uint8"
            },
            {
              "internalType": "string",
              "name": "shortVerdict",
              "type": "string"
            },
            {
              "internalType": "address",
              "name": "submitter",
              "type": "address"
            },
            {
              "internalType": "uint256",
              "name": "timestamp",
              "type": "uint256"
            }
          ],
          "internalType": "struct AgentJury.VerdictRecord[]",
          "name": "page",
          "type": "tuple[]"
        }
      ],
      "stateMutability": "view",
      "type": "function"
    },
    {
      "inputs": [
        {
          "internalType": "uint256",
          "name": "index",
          "type": "uint256"
        }
      ],
      "name": "getVerdict",
      "outputs": [
        {
          "components": [
            {
              "internalType": "bytes32",
              "name": "caseHash",
              "type": "bytes32"
            },
            {
              "internalType": "uint8",
              "name": "feasibilityScore",
              "type": "uint8"
            },
            {
              "internalType": "uint8",
              "name": "innovationScore",
              "type": "uint8"
            },
            {
              "internalType": "uint8",
              "name": "riskScore",
              "type": "uint8"
            },
            {
              "internalType": "uint8",
              "name": "finalScore",
              "type": "uint8"
            },
            {
              "internalType": "string",
              "name": "shortVerdict",
              "type": "string"
            },
            {
              "internalType": "address",
              "name": "submitter",
              "type": "address"
            },
            {
              "internalType": "uint256",
              "name": "timestamp",
              "type": "uint256"
            }
          ],
          "internalType": "struct AgentJury.VerdictRecord",
          "name": "",
          "type": "tuple"
        }
      ],
      "stateMutability": "view",
      "type": "function"
    },
    {
      "inputs": [],
      "name": "getVerdictCount",
      "outputs": [
        {
          "internalType": "uint256",
          "name": "",
          "type": "uint256"
        }
      ],
      "stateMutability": "view",
      "type": "function"
    },
    {
      "inputs": [
        {
          "internalType": "uint256",
          "name": "offset",
          "type": "uint256"
        },
        {
          "internalType": "uint256",
          "name": "limit",
          "type": "uint256"
        }
      ],
      "name": "getVerdictsPage",
      "outputs": [
        {
          "components": [
            {
              "internalType": "bytes32",
              "name": "caseHash",
              "type": "bytes32"
            },
            {
              "internalType": "uint8",
              "name": "feasibilityScore",
              "type": "uint8"
            },
            {
              "internalType": "uint8",
              "name": "innovationScore",
              "type": "uint8"
            },
            {
              "internalType": "uint8",
              "name": "riskScore",
              "type": "uint8"
            },
            {
              "internalType": "uint8",
              "name": "finalScore",
              "type": "uint8"
            },
            {
              "internalType": "string",
              "name": "shortVerdict",
              "type": "string"
            },
            {
              "internalType": "address",
              "name": "submitter",
              "type": "address"
            },
            {
              "internalType": "uint256",
              "name": "timestamp",
              "type": "uint256"
            }
          ],
          "internalType": "struct AgentJury.VerdictRecord[]",
          "name": "page",
          "type": "tuple[]"
        }
      ],
      "stateMutability": "view",
      "type": "function"
    },
    {
      "inputs": [
        {
          "internalType": "address",
          "name": "",
          "type": "address"
        }
      ],
      "name": "lastSavedAt",
      "outputs": [
        {
          "internalType": "uint256",
          "name": "",
          "type": "uint256"
        }
      ],
      "stateMutability": "view",
      "type": "function"
    },
    {
      "inputs": [],
      "name": "owner",
      "outputs": [
        {
          "internalType": "address",
          "name": "",
          "type": "address"
        }
      ],
      "stateMutability": "view",
      "type": "function"
    },
    {
      "inputs": [
        {
          "internalType": "bytes32",
          "name": "caseHash",
          "type": "bytes32"
        },
        {
          "internalType": "uint8",
          "name": "feasibilityScore",
          "type": "uint8"
        },
        {
          "internalType": "uint8",
          "name": "innovationScore",
          "type": "uint8"
        },
        {
          "internalType": "uint8",
          "name": "riskScore",
          "type": "uint8"
        },
        {
          "internalType": "uint8",
          "name": "finalScore",
          "type": "uint8"
        },
        {
          "internalType": "string",
          "name": "shortVerdict",
          "type": "string"
        },
        {
          "internalType": "bytes",
          "name": "attestationSignature",
          "type": "bytes"
        }
      ],
      "name": "saveVerdict",
      "outputs": [],
      "stateMutability": "nonpayable",
      "type": "function"
    },
    {
      "inputs": [
        {
          "internalType": "bool",
          "name": "required",
          "type": "bool"
        }
      ],
      "name": "setAttestationRequired",
      "outputs": [],
      "stateMutability": "nonpayable",
      "type": "function"
    },
    {
      "inputs": [
        {
          "internalType": "address",
          "name": "_attestor",
          "type": "address"
        }
      ],
      "name": "setAttestor",
      "outputs": [],
      "stateMutability": "nonpayable",
      "type": "function"
    },
    {
      "inputs": [
        {
          "internalType": "address",
          "name": "writer",
          "type": "address"
        },
        {
          "internalType": "bool",
          "name": "authorized",
          "type": "bool"
        }
      ],
      "name": "setAuthorizedWriter",
      "outputs": [],
      "stateMutability": "nonpayable",
      "type": "function"
    },
    {
      "inputs": [
        {
          "internalType": "bool",
          "name": "enabled",
          "type": "bool"
        }
      ],
      "name": "setWriteAccessRestricted",
      "outputs": [],
      "stateMutability": "nonpayable",
      "type": "function"
    },
    {
      "inputs": [
        {
          "internalType": "address",
          "name": "newOwner",
          "type": "address"
        }
      ],
      "name": "transferOwnership",
      "outputs": [],
      "stateMutability": "nonpayable",
      "type": "function"
    },
    {
      "inputs": [],
      "name": "writeAccessRestricted",
      "outputs": [
        {
          "internalType": "bool",
          "name": "",
          "type": "bool"
        }
      ],
      "stateMutability": "view",
      "type": "function"
    }
  ],
  "bytecode": "0x608060405234801561001057600080fd5b5033600260006101000a81548173ffffffffffffffffffffffffffffffffffffffff021916908373ffffffffffffffffffffffffffffffffffffffff1602179055506001600360003373ffffffffffffffffffffffffffffffffffffffff1673ffffffffffffffffffffffffffffffffffffffff16815260200190815260200160002060006101000a81548160ff021916908315150217905550612a62806100b96000396000f3fe608060405234801561001057600080fd5b506004361061010b5760003560e01c80638da5cb5b116100a2578063bd4adf7211610071578063bd4adf72146102ba578063cada25c2146102d6578063f2fde38b146102f4578063f5770b1f14610310578063f68e13951461032c5761010b565b80638da5cb5b14610232578063a14e879e14610250578063aa973ed21461026e578063b80f46de1461029e5761010b565b80634e10878f116100de5780634e10878f1461019a578063526241a8146101ca578063542a086c146101fa57806373f4f6da146102165761010b565b806317a190a7146101105780632a6e12f11461012e57806333f3e74b1461014c578063430f8d081461017c575b600080fd5b61011861035c565b6040516101259190611723565b60405180910390f35b61013661036f565b6040516101439190611757565b60405180910390f35b610166600480360381019061016191906117a8565b61037b565b604051610173919061199a565b60405180910390f35b6101846103fb565b6040516101919190611757565b60405180910390f35b6101b460048036038101906101af91906119bc565b610400565b6040516101c19190611b6e565b60405180910390f35b6101e460048036038101906101df9190611bbc565b610574565b6040516101f19190611723565b60405180910390f35b610214600480360381019061020f9190611c15565b610594565b005b610230600480360381019061022b9190611d68565b61073c565b005b61023a610e9a565b6040516102479190611e59565b60405180910390f35b610258610ec0565b6040516102659190611723565b60405180910390f35b610288600480360381019061028391906117a8565b610ed3565b6040516102959190611b6e565b60405180910390f35b6102b860048036038101906102b39190611e74565b611037565b005b6102d460048036038101906102cf9190611e74565b61111b565b005b6102de6111ff565b6040516102eb9190611e59565b60405180910390f35b61030e60048036038101906103099190611bbc565b611225565b005b61032a60048036038101906103259190611bbc565b6113ea565b005b61034660048036038101906103419190611bbc565b611501565b6040516103539190611757565b60405180910390f35b600260149054906101000a900460ff1681565b60008080549050905090565b61038361169e565b60008054905082106103ca576040517f08c379a00000000000000000000000000000000000000000000000000000000081526004016103c190611efe565b60405180910390fd5b6103f4600083815481106103e1576103e0611f1e565b5b9060005260206000209060030201611519565b9050919050565b603c81565b6060600080805490509050808410158061041a5750600083145b1561047c57600067ffffffffffffffff81111561043a57610439611f4d565b5b60405190808252806020026020018201604052801561047357816020015b61046061169e565b8152602001906001900390816104585790505b5091505061056e565b6000838561048a9190611fab565b905081811115610498578190505b600085826104a69190611fdf565b90508067ffffffffffffffff8111156104c2576104c1611f4d565b5b6040519080825280602002602001820160405280156104fb57816020015b6104e861169e565b8152602001906001900390816104e05790505b50935060005b818110156105695761053e6000828961051a9190611fab565b8154811061052b5761052a611f1e565b5b9060005260206000209060030201611519565b85828151811061055157610550611f1e565b5b60200260200101819052508080600101915050610501565b505050505b92915050565b60036020528060005260406000206000915054906101000a900460ff1681565b600260009054906101000a900473ffffffffffffffffffffffffffffffffffffffff1673ffffffffffffffffffffffffffffffffffffffff163373ffffffffffffffffffffffffffffffffffffffff1614610624576040517f08c379a000000000000000000000000000000000000000000000000000000000815260040161061b9061205f565b60405180910390fd5b600073ffffffffffffffffffffffffffffffffffffffff168273ffffffffffffffffffffffffffffffffffffffff1603610693576040517f08c379a000000000000000000000000000000000000000000000000000000000815260040161068a906120cb565b60405180910390fd5b80600360008473ffffffffffffffffffffffffffffffffffffffff1673ffffffffffffffffffffffffffffffffffffffff16815260200190815260200160002060006101000a81548160ff0219169083151502179055508173ffffffffffffffffffffffffffffffffffffffff167fa356cd9fa06f93ff3064cd1edfea27d8e05c272871977892da10bbcedf2dde2e826040516107309190611723565b60405180910390a25050565b600260149054906101000a900460ff16156107de57600360003373ffffffffffffffffffffffffffffffffffffffff1673ffffffffffffffffffffffffffffffffffffffff16815260200190815260200160002060009054906101000a900460ff166107dd576040517f08c379a00000000000000000000000000000000000000000000000000000000081526004016107d490612137565b60405180910390fd5b5b6000600160003373ffffffffffffffffffffffffffffffffffffffff1673ffffffffffffffffffffffffffffffffffffffff168152602001908152602001600020549050600081148061083d5750603c816108399190611fab565b4210155b61087c576040517f08c379a0000000000000000000000000000000000000000000000000000000008152600401610873906121a3565b60405180910390fd5b600085859050116108c2576040517f08c379a00000000000000000000000000000000000000000000000000000000081526004016108b99061220f565b60405180910390fd5b608c858590501115610909576040517f08c379a00000000000000000000000000000000000000000000000000000000081526004016109009061227b565b60405180910390fd5b60648960ff1611158015610921575060648860ff1611155b8015610931575060648760ff1611155b8015610941575060648660ff1611155b610980576040517f08c379a0000000000000000000000000000000000000000000000000000000008152600401610977906122e7565b60405180910390fd5b600460149054906101000a900460ff1615610bee57600073ffffffffffffffffffffffffffffffffffffffff16600460009054906101000a900473ffffffffffffffffffffffffffffffffffffffff1673ffffffffffffffffffffffffffffffffffffffff1603610a26576040517f08c379a0000000000000000000000000000000000000000000000000000000008152600401610a1d90612353565b60405180910390fd5b60418383905014610a6c576040517f08c379a0000000000000000000000000000000000000000000000000000000008152600401610a63906123bf565b60405180910390fd5b60008a8a8a8a8a8a8a604051602001610a8b9796959493929190612475565b604051602081830303815290604052805190602001209050600081604051602001610ab6919061252f565b60405160208183030381529060405280519060200120905060008060008735925060208801359150604088013560001a9050601b8160ff161015610b0457601b81610b019190612555565b90505b600060018583868660405160008152602001604052604051610b2994939291906125a8565b6020604051602081039080840390855afa158015610b4b573d6000803e3d6000fd5b505050602060405103519050600460009054906101000a900473ffffffffffffffffffffffffffffffffffffffff1673ffffffffffffffffffffffffffffffffffffffff168173ffffffffffffffffffffffffffffffffffffffff1614610be7576040517f08c379a0000000000000000000000000000000000000000000000000000000008152600401610bde90612639565b60405180910390fd5b5050505050505b60006040518061010001604052808c815260200187878080601f016020809104026020016040519081016040528093929190818152602001838380828437600081840152601f19601f8201169050808301925050505050505081526020013373ffffffffffffffffffffffffffffffffffffffff1681526020014267ffffffffffffffff1681526020018b60ff1681526020018a60ff1681526020018960ff1681526020018860ff168152509080600181540180825580915050600190039060005260206000209060030201600090919091909150600082015181600001556020820151816001019081610ce29190612865565b5060408201518160020160006101000a81548173ffffffffffffffffffffffffffffffffffffffff021916908373ffffffffffffffffffffffffffffffffffffffff16021790555060608201518160020160146101000a81548167ffffffffffffffff021916908367ffffffffffffffff160217905550608082015181600201601c6101000a81548160ff021916908360ff16021790555060a082015181600201601d6101000a81548160ff021916908360ff16021790555060c082015181600201601e6101000a81548160ff021916908360ff16021790555060e082015181600201601f6101000a81548160ff021916908360ff160217905550505042600160003373ffffffffffffffffffffffffffffffffffffffff1673ffffffffffffffffffffffffffffffffffffffff168152602001908152602001600020819055503373ffffffffffffffffffffffffffffffffffffffff168a6001600080549050610e4d9190611fdf565b7f8c99e6798e2a4ce9ca1706bbf4254a6d10164c633b48a4bbdf2a5775aa40938f8c8c8c8c8c8c604051610e8696959493929190612964565b60405180910390a450505050505050505050565b600260009054906101000a900473ffffffffffffffffffffffffffffffffffffffff1681565b600460149054906101000a900460ff1681565b60606000808054905090506000831480610eed5750600081145b15610f4f57600067ffffffffffffffff811115610f0d57610f0c611f4d565b5b604051908082528060200260200182016040528015610f4657816020015b610f3361169e565b815260200190600190039081610f2b5790505b50915050611032565b6000818411610f5e5783610f60565b815b90508067ffffffffffffffff811115610f7c57610f7b611f4d565b5b604051908082528060200260200182016040528015610fb557816020015b610fa261169e565b815260200190600190039081610f9a5790505b50925060005b8181101561102e576110036000828486610fd59190611fdf565b610fdf9190611fab565b81548110610ff057610fef611f1e565b5b9060005260206000209060030201611519565b84828151811061101657611015611f1e565b5b60200260200101819052508080600101915050610fbb565b5050505b919050565b600260009054906101000a900473ffffffffffffffffffffffffffffffffffffffff1673ffffffffffffffffffffffffffffffffffffffff163373ffffffffffffffffffffffffffffffffffffffff16146110c7576040517f08c379a00000000000000000000000000000000000000000000000000000000081526004016110be9061205f565b60405180910390fd5b80600260146101000a81548160ff0219169083151502179055507f2aabc4fd3ac07842216e1b5faa64d03137f14f9cec787d69f8a1567de68be254816040516111109190611723565b60405180910390a150565b600260009054906101000a900473ffffffffffffffffffffffffffffffffffffffff1673ffffffffffffffffffffffffffffffffffffffff163373ffffffffffffffffffffffffffffffffffffffff16146111ab576040517f08c379a00000000000000000000000000000000000000000000000000000000081526004016111a29061205f565b60405180910390fd5b80600460146101000a81548160ff0219169083151502179055507f39859c8f67c497c006f34315993acf35de2c717eedc98bab67b7c1c2c88b0b27816040516111f49190611723565b60405180910390a150565b600460009054906101000a900473ffffffffffffffffffffffffffffffffffffffff1681565b600260009054906101000a900473ffffffffffffffffffffffffffffffffffffffff1673ffffffffffffffffffffffffffffffffffffffff163373ffffffffffffffffffffffffffffffffffffffff16146112b5576040517f08c379a00000000000000000000000000000000000000000000000000000000081526004016112ac9061205f565b60405180910390fd5b600073ffffffffffffffffffffffffffffffffffffffff168173ffffffffffffffffffffffffffffffffffffffff1603611324576040517f08c379a000000000000000000000000000000000000000000000000000000000815260040161131b90612a0c565b60405180910390fd5b6000600260009054906101000a900473ffffffffffffffffffffffffffffffffffffffff16905081600260006101000a81548173ffffffffffffffffffffffffffffffffffffffff021916908373ffffffffffffffffffffffffffffffffffffffff1602179055508173ffffffffffffffffffffffffffffffffffffffff168173ffffffffffffffffffffffffffffffffffffffff167f8be0079c531659141344cd1fd0a4f28419497f9722a3daafe3b4186f6b6457e060405160405180910390a35050565b600260009054906101000a900473ffffffffffffffffffffffffffffffffffffffff1673ffffffffffffffffffffffffffffffffffffffff163373ffffffffffffffffffffffffffffffffffffffff161461147a576040517f08c379a00000000000000000000000000000000000000000000000000000000081526004016114719061205f565b60405180910390fd5b80600460006101000a81548173ffffffffffffffffffffffffffffffffffffffff021916908373ffffffffffffffffffffffffffffffffffffffff1602179055508073ffffffffffffffffffffffffffffffffffffffff167fd5d99e381ae1a48ea1fe28325462987c8204869c61d1468101524f97d944001160405160405180910390a250565b60016020528060005260406000206000915090505481565b61152161169e565b6040518061010001604052808360000154815260200183600201601c9054906101000a900460ff1660ff16815260200183600201601d9054906101000a900460ff1660ff16815260200183600201601e9054906101000a900460ff1660ff16815260200183600201601f9054906101000a900460ff1660ff1681526020018360010180546115ae90612688565b80601f01602080910402602001604051908101604052809291908181526020018280546115da90612688565b80156116275780601f106115fc57610100808354040283529160200191611627565b820191906000526020600020905b81548152906001019060200180831161160a57829003601f168201915b505050505081526020018360020160009054906101000a900473ffffffffffffffffffffffffffffffffffffffff1673ffffffffffffffffffffffffffffffffffffffff1681526020018360020160149054906101000a900467ffffffffffffffff1667ffffffffffffffff168152509050919050565b60405180610100016040528060008019168152602001600060ff168152602001600060ff168152602001600060ff168152602001600060ff16815260200160608152602001600073ffffffffffffffffffffffffffffffffffffffff168152602001600081525090565b60008115159050919050565b61171d81611708565b82525050565b60006020820190506117386000830184611714565b92915050565b6000819050919050565b6117518161173e565b82525050565b600060208201905061176c6000830184611748565b92915050565b600080fd5b600080fd5b6117858161173e565b811461179057600080fd5b50565b6000813590506117a28161177c565b92915050565b6000602082840312156117be576117bd611772565b5b60006117cc84828501611793565b91505092915050565b6000819050919050565b6117e8816117d5565b82525050565b600060ff82169050919050565b611804816117ee565b82525050565b600081519050919050565b600082825260208201905092915050565b60005b83811015611844578082015181840152602081019050611829565b60008484015250505050565b6000601f19601f8301169050919050565b600061186c8261180a565b6118768185611815565b9350611886818560208601611826565b61188f81611850565b840191505092915050565b600073ffffffffffffffffffffffffffffffffffffffff82169050919050565b60006118c58261189a565b9050919050565b6118d5816118ba565b82525050565b6118e48161173e565b82525050565b60006101008301600083015161190360008601826117df565b50602083015161191660208601826117fb565b50604083015161192960408601826117fb565b50606083015161193c60608601826117fb565b50608083015161194f60808601826117fb565b5060a083015184820360a08601526119678282611861565b91505060c083015161197c60c08601826118cc565b5060e083015161198f60e08601826118db565b508091505092915050565b600060208201905081810360008301526119b481846118ea565b905092915050565b600080604083850312156119d3576119d2611772565b5b60006119e185828601611793565b92505060206119f285828601611793565b9150509250929050565b600081519050919050565b600082825260208201905092915050565b6000819050602082019050919050565b600061010083016000830151611a4160008601826117df565b506020830151611a5460208601826117fb565b506040830151611a6760408601826117fb565b506060830151611a7a60608601826117fb565b506080830151611a8d60808601826117fb565b5060a083015184820360a0860152611aa58282611861565b91505060c0830151611aba60c08601826118cc565b5060e0830151611acd60e08601826118db565b508091505092915050565b6000611ae48383611a28565b905092915050565b6000602082019050919050565b6000611b04826119fc565b611b0e8185611a07565b935083602082028501611b2085611a18565b8060005b85811015611b5c5784840389528151611b3d8582611ad8565b9450611b4883611aec565b925060208a01995050600181019050611b24565b50829750879550505050505092915050565b60006020820190508181036000830152611b888184611af9565b905092915050565b611b99816118ba565b8114611ba457600080fd5b50565b600081359050611bb681611b90565b92915050565b600060208284031215611bd257611bd1611772565b5b6000611be084828501611ba7565b91505092915050565b611bf281611708565b8114611bfd57600080fd5b50565b600081359050611c0f81611be9565b92915050565b60008060408385031215611c2c57611c2b611772565b5b6000611c3a85828601611ba7565b9250506020611c4b85828601611c00565b9150509250929050565b611c5e816117d5565b8114611c6957600080fd5b50565b600081359050611c7b81611c55565b92915050565b611c8a816117ee565b8114611c9557600080fd5b50565b600081359050611ca781611c81565b92915050565b600080fd5b600080fd5b600080fd5b60008083601f840112611cd257611cd1611cad565b5b8235905067ffffffffffffffff811115611cef57611cee611cb2565b5b602083019150836001820283011115611d0b57611d0a611cb7565b5b9250929050565b60008083601f840112611d2857611d27611cad565b5b8235905067ffffffffffffffff811115611d4557611d44611cb2565b5b602083019150836001820283011115611d6157611d60611cb7565b5b9250929050565b600080600080600080600080600060e08a8c031215611d8a57611d89611772565b5b6000611d988c828d01611c6c565b9950506020611da98c828d01611c98565b9850506040611dba8c828d01611c98565b9750506060611dcb8c828d01611c98565b9650506080611ddc8c828d01611c98565b95505060a08a013567ffffffffffffffff811115611dfd57611dfc611777565b5b611e098c828d01611cbc565b945094505060c08a013567ffffffffffffffff811115611e2c57611e2b611777565b5b611e388c828d01611d12565b92509250509295985092959850929598565b611e53816118ba565b82525050565b6000602082019050611e6e6000830184611e4a565b92915050565b600060208284031215611e8a57611e89611772565b5b6000611e9884828501611c00565b91505092915050565b600082825260208201905092915050565b7f496e646578206f7574206f6620626f756e647300000000000000000000000000600082015250565b6000611ee8601383611ea1565b9150611ef382611eb2565b602082019050919050565b60006020820190508181036000830152611f1781611edb565b9050919050565b7f4e487b7100000000000000000000000000000000000000000000000000000000600052603260045260246000fd5b7f4e487b7100000000000000000000000000000000000000000000000000000000600052604160045260246000fd5b7f4e487b7100000000000000000000000000000000000000000000000000000000600052601160045260246000fd5b6000611fb68261173e565b9150611fc18361173e565b9250828201905080821115611fd957611fd8611f7c565b5b92915050565b6000611fea8261173e565b9150611ff58361173e565b925082820390508181111561200d5761200c611f7c565b5b92915050565b7f4f6e6c79206f776e657200000000000000000000000000000000000000000000600082015250565b6000612049600a83611ea1565b915061205482612013565b602082019050919050565b600060208201905081810360008301526120788161203c565b9050919050565b7f496e76616c696420777269746572000000000000000000000000000000000000600082015250565b60006120b5600e83611ea1565b91506120c08261207f565b602082019050919050565b600060208201905081810360008301526120e4816120a8565b9050919050565b7f577269746572206e6f7420617574686f72697a65640000000000000000000000600082015250565b6000612121601583611ea1565b915061212c826120eb565b602082019050919050565b6000602082019050818103600083015261215081612114565b9050919050565b7f506c656173652077616974206265666f726520736176696e6720616761696e00600082015250565b600061218d601f83611ea1565b915061219882612157565b602082019050919050565b600060208201905081810360008301526121bc81612180565b9050919050565b7f566572646963742063616e6e6f7420626520656d707479000000000000000000600082015250565b60006121f9601783611ea1565b9150612204826121c3565b602082019050919050565b60006020820190508181036000830152612228816121ec565b9050919050565b7f5665726469637420746f6f206c6f6e6700000000000000000000000000000000600082015250565b6000612265601083611ea1565b91506122708261222f565b602082019050919050565b6000602082019050818103600083015261229481612258565b9050919050565b7f53636f726573206d75737420626520302d313030000000000000000000000000600082015250565b60006122d1601483611ea1565b91506122dc8261229b565b602082019050919050565b60006020820190508181036000830152612300816122c4565b9050919050565b7f4174746573746f72206e6f742073657400000000000000000000000000000000600082015250565b600061233d601083611ea1565b915061234882612307565b602082019050919050565b6000602082019050818103600083015261236c81612330565b9050919050565b7f496e76616c6964207369676e6174757265206c656e6774680000000000000000600082015250565b60006123a9601883611ea1565b91506123b482612373565b602082019050919050565b600060208201905081810360008301526123d88161239c565b9050919050565b6000819050919050565b6123fa6123f5826117d5565b6123df565b82525050565b60008160f81b9050919050565b600061241882612400565b9050919050565b61243061242b826117ee565b61240d565b82525050565b600081905092915050565b82818337600083830152505050565b600061245c8385612436565b9350612469838584612441565b82840190509392505050565b6000612481828a6123e9565b602082019150612491828961241f565b6001820191506124a1828861241f565b6001820191506124b1828761241f565b6001820191506124c1828661241f565b6001820191506124d2828486612450565b915081905098975050505050505050565b7f19457468657265756d205369676e6564204d6573736167653a0a333200000000600082015250565b6000612519601c83612436565b9150612524826124e3565b601c82019050919050565b600061253a8261250c565b915061254682846123e9565b60208201915081905092915050565b6000612560826117ee565b915061256b836117ee565b9250828201905060ff81111561258457612583611f7c565b5b92915050565b612593816117d5565b82525050565b6125a2816117ee565b82525050565b60006080820190506125bd600083018761258a565b6125ca6020830186612599565b6125d7604083018561258a565b6125e4606083018461258a565b95945050505050565b7f496e76616c6964206174746573746174696f6e207369676e6174757265000000600082015250565b6000612623601d83611ea1565b915061262e826125ed565b602082019050919050565b6000602082019050818103600083015261265281612616565b9050919050565b7f4e487b7100000000000000000000000000000000000000000000000000000000600052602260045260246000fd5b600060028204905060018216806126a057607f821691505b6020821081036126b3576126b2612659565b5b50919050565b60008190508160005260206000209050919050565b60006020601f8301049050919050565b600082821b905092915050565b60006008830261271b7fffffffffffffffffffffffffffffffffffffffffffffffffffffffffffffffff826126de565b61272586836126de565b95508019841693508086168417925050509392505050565b6000819050919050565b600061276261275d6127588461173e565b61273d565b61173e565b9050919050565b6000819050919050565b61277c83612747565b61279061278882612769565b8484546126eb565b825550505050565b600090565b6127a5612798565b6127b0818484612773565b505050565b5b818110156127d4576127c960008261279d565b6001810190506127b6565b5050565b601f821115612819576127ea816126b9565b6127f3846126ce565b81016020851015612802578190505b61281661280e856126ce565b8301826127b5565b50505b505050565b600082821c905092915050565b600061283c6000198460080261281e565b1980831691505092915050565b6000612855838361282b565b9150826002028217905092915050565b61286e8261180a565b67ffffffffffffffff81111561288757612886611f4d565b5b6128918254612688565b61289c8282856127d8565b600060209050601f8311600181146128cf57600084156128bd578287015190505b6128c78582612849565b86555061292f565b601f1984166128dd866126b9565b60005b82811015612905578489015182556001820191506020850194506020810190506128e0565b86831015612922578489015161291e601f89168261282b565b8355505b6001600288020188555050505b505050505050565b60006129438385611ea1565b9350612950838584612441565b61295983611850565b840190509392505050565b600060a0820190506129796000830189612599565b6129866020830188612599565b6129936040830187612599565b6129a06060830186612599565b81810360808301526129b3818486612937565b9050979650505050505050565b7f496e76616c6964206f776e657200000000000000000000000000000000000000600082015250565b60006129f6600d83611ea1565b9150612a01826129c0565b602082019050919050565b60006020820190508181036000830152612a25816129e9565b905091905056fea2646970667358221220eb0cd6f6caee9446384dce58025e1eaa085cf6a24236062d7dc25b409f68c40564736f6c63430008180033",
  "linkReferences": {},
  "deployedLinkReferences": {}
}