{
  "_format": "hh-sol-artifact-1",
  "contractName": "AgentJury",
  "sourceName": "src/AgentJury.sol",
  "abi": [
    {
      "inputs": [],
      "name": "AccessControlBadConfirmation",
      "type": "error"
    },
    {
      "inputs": [
        {
          "internalType": "address",
          "name": "account",
          "type": "address"
        },
        {
          "internalType": "bytes32",
          "name": "neededRole",
          "type": "bytes32"
        }
      ],
      "name": "AccessControlUnauthorizedAccount",
      "type": "error"
    },
    {
      "inputs": [
        {
          "internalType": "address",
          "name": "target",
          "type": "address"
        }
      ],
      "name": "AddressEmptyCode",
      "type": "error"
    },
    {
      "inputs": [],
      "name": "AttestorNotSet",
      "type": "error"
    },
    {
      "inputs": [
        {
          "internalType": "uint256",
          "name": "remaining",
          "type": "uint256"
        }
      ],
      "name": "CooldownNotElapsed",
      "type": "error"
    },
    {
      "inputs": [],
      "name": "DisputeReasonRequired",
      "type": "error"
    },
    {
      "inputs": [
        {
          "internalType": "address",
          "name": "implementation",
          "type": "address"
        }
      ],
      "name": "ERC1967InvalidImplementation",
      "type": "error"
    },
    {
      "inputs": [],
      "name": "ERC1967NonPayable",
      "type": "error"
    },
    {
      "inputs": [],
      "name": "FailedCall",
      "type": "error"
    },
    {
      "inputs": [
        {
          "internalType": "uint256",
          "name": "index",
          "type": "uint256"
        },
        {
          "internalType": "uint256",
          "name": "total",
          "type": "uint256"
        }
      ],
      "name": "IndexOutOfBounds",
      "type": "error"
    },
    {
      "inputs": [],
      "name": "InvalidInitialization",
      "type": "error"
    },
    {
      "inputs": [],
      "name": "InvalidSignature",
      "type": "error"
    },
    {
      "inputs": [
        {
          "internalType": "uint256",
          "name": "length",
          "type": "uint256"
        }
      ],
      "name": "InvalidSignatureLength",
      "type": "error"
    },
    {
      "inputs": [
        {
          "internalType": "enum AgentJury.VerdictStatus",
          "name": "current",
          "type": "uint8"
        },
        {
          "internalType": "enum AgentJury.VerdictStatus",
          "name": "target",
          "type": "uint8"
        }
      ],
      "name": "InvalidStatusTransition",
      "type": "error"
    },
    {
      "inputs": [],
      "name": "NotInitializing",
      "type": "error"
    },
    {
      "inputs": [],
      "name": "OnlySubmitterOrAdmin",
      "type": "error"
    },
    {
      "inputs": [
        {
          "internalType": "string",
          "name": "field",
          "type": "string"
        },
        {
          "internalType": "uint8",
          "name": "value",
          "type": "uint8"
        }
      ],
      "name": "ScoreOutOfRange",
      "type": "error"
    },
    {
      "inputs": [],
      "name": "UUPSUnauthorizedCallContext",
      "type": "error"
    },
    {
      "inputs": [
        {
          "internalType": "bytes32",
          "name": "slot",
          "type": "bytes32"
        }
      ],
      "name": "UUPSUnsupportedProxiableUUID",
      "type": "error"
    },
    {
      "inputs": [],
      "name": "VerdictEmpty",
      "type": "error"
    },
    {
      "inputs": [
        {
          "internalType": "uint256",
          "name": "length",
          "type": "uint256"
        },
        {
          "internalType": "uint256",
          "name": "maxLength",
          "type": "uint256"
        }
      ],
      "name": "VerdictTooLong",
      "type": "error"
    },
    {
      "anonymous": false,
      "inputs": [
        {
          "indexed": false,
          "internalType": "bool",
          "name": "required",
          "type": "bool"
        }
      ],
      "name": "AttestationRequirementUpdated",
      "type": "event"
    },
    {
      "anonymous": false,
      "inputs": [
        {
          "indexed": true,
          "internalType": "address",
          "name": "oldAttestor",
          "type": "address"
        },
        {
          "indexed": true,
          "internalType": "address",
          "name": "newAttestor",
          "type": "address"
        }
      ],
      "name": "AttestorUpdated",
      "type": "event"
    },
    {
      "anonymous": false,
      "inputs": [
        {
          "indexed": false,
          "internalType": "uint256",
          "name": "oldCooldown",
          "type": "uint256"
        },
        {
          "indexed": false,
          "internalType": "uint256",
          "name": "newCooldown",
          "type": "uint256"
        }
      ],
      "name": "CooldownUpdated",
      "type": "event"
    },
    {
      "anonymous": false,
      "inputs": [
        {
          "indexed": false,
          "internalType": "uint64",
          "name": "version",
          "type": "uint64"
        }
      ],
      "name": "Initialized",
      "type": "event"
    },
    {
      "anonymous": false,
      "inputs": [
        {
          "indexed": true,
          "internalType": "bytes32",
          "name": "role",
          "type": "bytes32"
        },
        {
          "indexed": true,
          "internalType": "bytes32",
          "name": "previousAdminRole",
          "type": "bytes32"
        },
        {
          "indexed": true,
          "internalType": "bytes32",
          "name": "newAdminRole",
          "type": "bytes32"
        }
      ],
      "name": "RoleAdminChanged",
      "type": "event"
    },
    {
      "anonymous": false,
      "inputs": [
        {
          "indexed": true,
          "internalType": "bytes32",
          "name": "role",
          "type": "bytes32"
        },
        {
          "indexed": true,
          "internalType": "address",
          "name": "account",
          "type": "address"
        },
        {
          "indexed": true,
          "internalType": "address",
          "name": "sender",
          "type": "address"
        }
      ],
      "name": "RoleGranted",
      "type": "event"
    },
    {
      "anonymous": false,
      "inputs": [
        {
          "indexed": true,
          "internalType": "bytes32",
          "name": "role",
          "type": "bytes32"
        },
        {
          "indexed": true,
          "internalType": "address",
          "name": "account",
          "type": "address"
        },
        {
          "indexed": true,
          "internalType": "address",
          "name": "sender",
          "type": "address"
        }
      ],
      "name": "RoleRevoked",
      "type": "event"
    },
    {
      "anonymous": false,
      "inputs": [
        {
          "indexed": true,
          "internalType": "address",
          "name": "implementation",
          "type": "address"
        }
      ],
      "name": "Upgraded",
      "type": "event"
    },
    {
      "anonymous": false,
      "inputs": [
        {
          "indexed": true,
          "internalType": "uint256",
          "name": "verdictId",
          "type": "uint256"
        },
        {
          "indexed": true,
          "internalType": "bytes32",
          "name": "caseHash",
          "type": "bytes32"
        },
        {
          "indexed": true,
          "internalType": "address",
          "name": "disputer",
          "type": "address"
        },
        {
          "indexed": false,
          "internalType": "string",
          "name": "reason",
          "type": "string"
        },
        {
          "indexed": false,
          "internalType": "uint256",
          "name": "timestamp",
          "type": "uint256"
        }
      ],
      "name": "VerdictDisputed",
      "type": "event"
    },
    {
      "anonymous": false,
      "inputs": [
        {
          "indexed": true,
          "internalType": "uint256",
          "name": "verdictId",
          "type": "uint256"
        },
        {
          "indexed": true,
          "internalType": "bytes32",
          "name": "caseHash",
          "type": "bytes32"
        },
        {
          "indexed": true,
          "internalType": "address",
          "name": "resolver",
          "type": "address"
        },
        {
          "indexed": false,
          "internalType": "enum AgentJury.VerdictStatus",
          "name": "newStatus",
          "type": "uint8"
        },
        {
          "indexed": false,
          "internalType": "uint256",
          "name": "timestamp",
          "type": "uint256"
        }
      ],
      "name": "VerdictResolved",
      "type": "event"
    },
    {
      "anonymous": false,
      "inputs": [
        {
          "indexed": true,
          "internalType": "uint256",
          "name": "verdictId",
          "type": "uint256"
        },
        {
          "indexed": true,
          "internalType": "bytes32",
          "name": "caseHash",
          "type": "bytes32"
        },
        {
          "indexed": true,
          "internalType": "address",
          "name": "revoker",
          "type": "address"
        },
        {
          "indexed": false,
          "internalType": "uint256",
          "name": "timestamp",
          "type": "uint256"
        }
      ],
      "name": "VerdictRevoked",
      "type": "event"
    },
    {
      "anonymous": false,
      "inputs": [
        {
          "indexed": true,
          "internalType": "uint256",
          "name": "verdictId",
          "type": "uint256"
        },
        {
          "indexed": true,
          "internalType": "bytes32",
          "name": "caseHash",
          "type": "bytes32"
        },
        {
          "indexed": true,
          "internalType": "address",
          "name": "submitter",
          "type": "address"
        },
        {
          "indexed": false,
          "internalType": "uint8",
          "name": "feasibilityScore",
          "type": "uint8"
        },
        {
          "indexed": false,
          "internalType": "uint8",
          "name": "innovationScore",
          "type": "uint8"
        },
        {
          "indexed": false,
          "internalType": "uint8",
          "name": "riskScore",
          "type": "uint8"
        },
        {
          "indexed": false,
          "internalType": "uint8",
          "name": "finalScore",
          "type": "uint8"
        },
        {
          "indexed": false,
          "internalType": "bool",
          "name": "attestationVerified",
          "type": "bool"
        },
        {
          "indexed": false,
          "internalType": "uint256",
          "name": "timestamp",
          "type": "uint256"
        }
      ],
      "name": "VerdictSaved",
      "type": "event"
    },
    {
      "inputs": [],
      "name": "ATTESTOR_ROLE",
      "outputs": [
        {
          "internalType": "bytes32",
          "name": "",
          "type": "bytes32"
        }
      ],
      "stateMutability": "view",
      "type": "function"
    },
    {
      "inputs": [],
      "name": "CONTRACT_VERSION",
      "outputs": [
        {
          "internalType": "uint256",
          "name": "",
          "type": "uint256"
        }
      ],
      "stateMutability": "view",
      "type": "function"
    },
    {
      "inputs": [],
      "name": "DEFAULT_ADMIN_ROLE",
      "outputs": [
        {
          "internalType": "bytes32",
          "name": "",
          "type": "bytes32"
        }
      ],
      "stateMutability": "view",
      "type": "function"
    },
    {
      "inputs": [],
      "name": "DISPUTER_ROLE",
      "outputs": [
        {
          "internalType": "bytes32",
          "name": "",
          "type": "bytes32"
        }
      ],
      "stateMutability": "view",
      "type": "function"
    },
    {
      "inputs": [],
      "name": "UPGRADE_INTERFACE_VERSION",
      "outputs": [
        {
          "internalType": "string",
          "name": "",
          "type": "string"
        }
      ],
      "stateMutability": "view",
      "type": "function"
    },
    {
      "inputs": [],
      "name": "WRITER_ROLE",
      "outputs": [
        {
          "internalType": "bytes32",
          "name": "",
          "type": "bytes32"
        }
      ],
      "stateMutability": "view",
      "type": "function"
    },
    {
      "inputs": [],
      "name": "attestationRequired",
      "outputs": [
        {
          "internalType": "bool",
          "name": "",
          "type": "bool"
        }
      ],
      "stateMutability": "view",
      "type": "function"
    },
    {
      "inputs": [],
      "name": "attestor",
      "outputs": [
        {
          "internalType": "address",
          "name": "",
          "type": "address"
        }
      ],
      "stateMutability": "view",
      "type": "function"
    },
    {
      "inputs": [
        {
          "internalType": "uint256",
          "name": "verdictId",
          "type": "uint256"
        },
        {
          "internalType": "string",
          "name": "reason",
          "type": "string"
        }
      ],
      "name": "disputeVerdict",
      "outputs": [],
      "stateMutability": "nonpayable",
      "type": "function"
    },
    {
      "inputs": [
        {
          "internalType": "uint256",
          "name": "limit",
          "type": "uint256"
        }
      ],
      "name": "getLatestVerdicts",
      "outputs": [
        {
          "components": [
            {
              "internalType": "bytes32",
              "name": "caseHash",
              "type": "bytes32"
            },
            {
              "internalType": "uint8",
              "name": "feasibilityScore",
              "type": "uint8"
            },
            {
              "internalType": "uint8",
              "name": "innovationScore",
              "type": "uint8"
            },
            {
              "internalType": "uint8",
              "name": "riskScore",
              "type": "uint8"
            },
            {
              "internalType": "uint8",
              "name": "finalScore",
              "type": "uint8"
            },
            {
              "internalType": "string",
              "name": "shortVerdict",
              "type": "string"
            },
            {
              "internalType": "address",
              "name": "submitter",
              "type": "address"
            },
            {
              "internalType": "uint256",
              "name": "timestamp",
              "type": "uint256"
            },
            {
              "internalType": "enum AgentJury.VerdictStatus",
              "name": "status",
              "type": "uint8"
            },
            {
              "internalType": "bool",
              "name": "attestationVerified",
              "type": "bool"
            },
            {
              "internalType": "string",
              "name": "disputeReason",
              "type": "string"
            }
          ],
          "internalType": "struct AgentJury.VerdictRecord[]",
          "name": "page",
          "type": "tuple[]"
        }
      ],
      "stateMutability": "view",
      "type": "function"
    },
    {
      "inputs": [
        {
          "internalType": "bytes32",
          "name": "role",
          "type": "bytes32"
        }
      ],
      "name": "getRoleAdmin",
      "outputs": [
        {
          "internalType": "bytes32",
          "name": "",
          "type": "bytes32"
        }
      ],
      "stateMutability": "view",
      "type": "function"
    },
    {
      "inputs": [
        {
          "internalType": "uint256",
          "name": "index",
          "type": "uint256"
        }
      ],
      "name": "getVerdict",
      "outputs": [
        {
          "components": [
            {
              "internalType": "bytes32",
              "name": "caseHash",
              "type": "bytes32"
            },
            {
              "internalType": "uint8",
              "name": "feasibilityScore",
              "type": "uint8"
            },
            {
              "internalType": "uint8",
              "name": "innovationScore",
              "type": "uint8"
            },
            {
              "internalType": "uint8",
              "name": "riskScore",
              "type": "uint8"
            },
            {
              "internalType": "uint8",
              "name": "finalScore",
              "type": "uint8"
            },
            {
              "internalType": "string",
              "name": "shortVerdict",
              "type": "string"
            },
            {
              "internalType": "address",
              "name": "submitter",
              "type": "address"
            },
            {
              "internalType": "uint256",
              "name": "timestamp",
              "type": "uint256"
            },
            {
              "internalType": "enum AgentJury.VerdictStatus",
              "name": "status",
              "type": "uint8"
            },
            {
              "internalType": "bool",
              "name": "attestationVerified",
              "type": "bool"
            },
            {
              "internalType": "string",
              "name": "disputeReason",
              "type": "string"
            }
          ],
          "internalType": "struct AgentJury.VerdictRecord",
          "name": "",
          "type": "tuple"
        }
      ],
      "stateMutability": "view",
      "type": "function"
    },
    {
      "inputs": [],
      "name": "getVerdictCount",
      "outputs": [
        {
          "internalType": "uint256",
          "name": "",
          "type": "uint256"
        }
      ],
      "stateMutability": "view",
      "type": "function"
    },
    {
      "inputs": [
        {
          "internalType": "bytes32",
          "name": "caseHash",
          "type": "bytes32"
        }
      ],
      "name": "getVerdictCountByCaseHash",
      "outputs": [
        {
          "internalType": "uint256",
          "name": "",
          "type": "uint256"
        }
      ],
      "stateMutability": "view",
      "type": "function"
    },
    {
      "inputs": [
        {
          "internalType": "bytes32",
          "name": "caseHash",
          "type": "bytes32"
        }
      ],
      "name": "getVerdictsByCaseHash",
      "outputs": [
        {
          "components": [
            {
              "internalType": "bytes32",
              "name": "caseHash",
              "type": "bytes32"
            },
            {
              "internalType": "uint8",
              "name": "feasibilityScore",
              "type": "uint8"
            },
            {
              "internalType": "uint8",
              "name": "innovationScore",
              "type": "uint8"
            },
            {
              "internalType": "uint8",
              "name": "riskScore",
              "type": "uint8"
            },
            {
              "internalType": "uint8",
              "name": "finalScore",
              "type": "uint8"
            },
            {
              "internalType": "string",
              "name": "shortVerdict",
              "type": "string"
            },
            {
              "internalType": "address",
              "name": "submitter",
              "type": "address"
            },
            {
              "internalType": "uint256",
              "name": "timestamp",
              "type": "uint256"
            },
            {
              "internalType": "enum AgentJury.VerdictStatus",
              "name": "status",
              "type": "uint8"
            },
            {
              "internalType": "bool",
              "name": "attestationVerified",
              "type": "bool"
            },
            {
              "internalType": "string",
              "name": "disputeReason",
              "type": "string"
            }
          ],
          "internalType": "struct AgentJury.VerdictRecord[]",
          "name": "results",
          "type": "tuple[]"
        }
      ],
      "stateMutability": "view",
      "type": "function"
    },
    {
      "inputs": [
        {
          "internalType": "uint256",
          "name": "offset",
          "type": "uint256"
        },
        {
          "internalType": "uint256",
          "name": "limit",
          "type": "uint256"
        }
      ],
      "name": "getVerdictsPage",
      "outputs": [
        {
          "components": [
            {
              "internalType": "bytes32",
              "name": "caseHash",
              "type": "bytes32"
            },
            {
              "internalType": "uint8",
              "name": "feasibilityScore",
              "type": "uint8"
            },
            {
              "internalType": "uint8",
              "name": "innovationScore",
              "type": "uint8"
            },
            {
              "internalType": "uint8",
              "name": "riskScore",
              "type": "uint8"
            },
            {
              "internalType": "uint8",
              "name": "finalScore",
              "type": "uint8"
            },
            {
              "internalType": "string",
              "name": "shortVerdict",
              "type": "string"
            },
            {
              "internalType": "address",
              "name": "submitter",
              "type": "address"
            },
            {
              "internalType": "uint256",
              "name": "timestamp",
              "type": "uint256"
            },
            {
              "internalType": "enum AgentJury.VerdictStatus",
              "name": "status",
              "type": "uint8"
            },
            {
              "internalType": "bool",
              "name": "attestationVerified",
              "type": "bool"
            },
            {
              "internalType": "string",
              "name": "disputeReason",
              "type": "string"
            }
          ],
          "internalType": "struct AgentJury.VerdictRecord[]",
          "name": "page",
          "type": "tuple[]"
        }
      ],
      "stateMutability": "view",
      "type": "function"
    },
    {
      "inputs": [
        {
          "internalType": "bytes32",
          "name": "role",
          "type": "bytes32"
        },
        {
          "internalType": "address",
          "name": "account",
          "type": "address"
        }
      ],
      "name": "grantRole",
      "outputs": [],
      "stateMutability": "nonpayable",
      "type": "function"
    },
    {
      "inputs": [
        {
          "internalType": "bytes32",
          "name": "role",
          "type": "bytes32"
        },
        {
          "internalType": "address",
          "name": "account",
          "type": "address"
        }
      ],
      "name": "hasRole",
      "outputs": [
        {
          "internalType": "bool",
          "name": "",
          "type": "bool"
        }
      ],
      "stateMutability": "view",
      "type": "function"
    },
    {
      "inputs": [
        {
          "internalType": "uint256",
          "name": "_cooldown",
          "type": "uint256"
        }
      ],
      "name": "initialize",
      "outputs": [],
      "stateMutability": "nonpayable",
      "type": "function"
    },
    {
      "inputs": [
        {
          "internalType": "address",
          "name": "",
          "type": "address"
        }
      ],
      "name": "lastSavedAt",
      "outputs": [
        {
          "internalType": "uint256",
          "name": "",
          "type": "uint256"
        }
      ],
      "stateMutability": "view",
      "type": "function"
    },
    {
      "inputs": [],
      "name": "proxiableUUID",
      "outputs": [
        {
          "internalType": "bytes32",
          "name": "",
          "type": "bytes32"
        }
      ],
      "stateMutability": "view",
      "type": "function"
    },
    {
      "inputs": [
        {
          "internalType": "bytes32",
          "name": "role",
          "type": "bytes32"
        },
        {
          "internalType": "address",
          "name": "callerConfirmation",
          "type": "address"
        }
      ],
      "name": "renounceRole",
      "outputs": [],
      "stateMutability": "nonpayable",
      "type": "function"
    },
    {
      "inputs": [
        {
          "internalType": "uint256",
          "name": "verdictId",
          "type": "uint256"
        },
        {
          "internalType": "bool",
          "name": "reinstate",
          "type": "bool"
        }
      ],
      "name": "resolveDispute",
      "outputs": [],
      "stateMutability": "nonpayable",
      "type": "function"
    },
    {
      "inputs": [
        {
          "internalType": "bytes32",
          "name": "role",
          "type": "bytes32"
        },
        {
          "internalType": "address",
          "name": "account",
          "type": "address"
        }
      ],
      "name": "revokeRole",
      "outputs": [],
      "stateMutability": "nonpayable",
      "type": "function"
    },
    {
      "inputs": [
        {
          "internalType": "uint256",
          "name": "verdictId",
          "type": "uint256"
        }
      ],
      "name": "revokeVerdict",
      "outputs": [],
      "stateMutability": "nonpayable",
      "type": "function"
    },
    {
      "inputs": [],
      "name": "saveCooldown",
      "outputs": [
        {
          "internalType": "uint256",
          "name": "",
          "type": "uint256"
        }
      ],
      "stateMutability": "view",
      "type": "function"
    },
    {
      "inputs": [
        {
          "internalType": "bytes32",
          "name": "caseHash",
          "type": "bytes32"
        },
        {
          "internalType": "uint8",
          "name": "feasibilityScore",
          "type": "uint8"
        },
        {
          "internalType": "uint8",
          "name": "innovationScore",
          "type": "uint8"
        },
        {
          "internalType": "uint8",
          "name": "riskScore",
          "type": "uint8"
        },
        {
          "internalType": "uint8",
          "name": "finalScore",
          "type": "uint8"
        },
        {
          "internalType": "string",
          "name": "shortVerdict",
          "type": "string"
        },
        {
          "internalType": "bytes",
          "name": "attestationSignature",
          "type": "bytes"
        }
      ],
      "name": "saveVerdict",
      "outputs": [],
      "stateMutability": "nonpayable",
      "type": "function"
    },
    {
      "inputs": [
        {
          "internalType": "bool",
          "name": "required",
          "type": "bool"
        }
      ],
      "name": "setAttestationRequired",
      "outputs": [],
      "stateMutability": "nonpayable",
      "type": "function"
    },
    {
      "inputs": [
        {
          "internalType": "address",
          "name": "_attestor",
          "type": "address"
        }
      ],
      "name": "setAttestor",
      "outputs": [],
      "stateMutability": "nonpayable",
      "type": "function"
    },
    {
      "inputs": [
        {
          "internalType": "uint256",
          "name": "_cooldown",
          "type": "uint256"
        }
      ],
      "name": "setCooldown",
      "outputs": [],
      "stateMutability": "nonpayable",
      "type": "function"
    },
    {
      "inputs": [
        {
          "internalType": "bytes4",
          "name": "interfaceId",
          "type": "bytes4"
        }
      ],
      "name": "supportsInterface",
      "outputs": [
        {
          "internalType": "bool",
          "name": "",
          "type": "bool"
        }
      ],
      "stateMutability": "view",
      "type": "function"
    },
    {
      "inputs": [
        {
          "internalType": "address",
          "name": "newImplementation",
          "type": "address"
        },
        {
          "internalType": "bytes",
          "name": "data",
          "type": "bytes"
        }
      ],
      "name": "upgradeToAndCall",
      "outputs": [],
      "stateMutability": "payable",
      "type": "function"
    }
  ],
  "bytecode": "0x60a0806040523461002a573060805261237190816100308239608051818181611270015261137c0152f35b600080fdfe608080604052600436101561001357600080fd5b60003560e01c90816301ffc9a71461182e57508063171312bf14611802578063248a9ca3146117c65780632a6e12f1146117a85780632f2ff15d1461175c578063312d4696146116d657806333f3e74b1461169257806334b25ee2146115a057806336568abe1461155957806338b903331461153d5780634e10878f1461151b5780634f1ef2861461132e5780634fc3f41a146112da57806352d1902d1461125d578063591d51c81461115257806362723644146111175780637161bb83146110f957806373f4f6da14610875578063754082191461083a57806391d14854146107e05780639ac5fef21461056c5780639beaab7b14610531578063a14e879e1461050b578063a217fddf146104ef578063aa973ed2146104c4578063ad3cb1cc14610452578063bd4adf72146103e6578063cada25c2146103bd578063d547741f1461036f578063f5770b1f14610305578063f68e1395146102cb5763fe4b84df1461017f57600080fd5b346102c65760203660031901126102c6577ff0c57e16840df040f15088dc2f81fe391c3923bec73e23a9662efc9c229c6a00805460ff8160401c1615906001600160401b038116801590816102be575b60011490816102b4575b1590816102ab575b506102995767ffffffffffffffff19811660011783558161027a575b5060ff825460401c16156102685761021433611e88565b5061021e33611f28565b5060043560015561022b57005b68ff00000000000000001981541690557fc7f505b2f371ae2175ee4913f4499e1f2633a7b5936321eed1cdaeb6115181d2602060405160018152a1005b604051631afcd79f60e31b8152600490fd5b68ffffffffffffffffff191668010000000000000001178255386101fd565b60405163f92ee8a960e01b8152600490fd5b905015386101e1565b303b1591506101d9565b8391506101cf565b600080fd5b346102c65760203660031901126102c6576001600160a01b036102ec611897565b1660005260026020526020604060002054604051908152f35b346102c65760203660031901126102c65761031e611897565b610326611e1b565b600380546001600160a01b039283166001600160a01b0319821681179092559091167fb2609665f07e4b0d216ff87ff7103a8dc4adbf90f137d3a26b1560da2b8fb7d6600080a3005b346102c65760403660031901126102c6576103bb60043561038e611881565b908060005260008051602061231c8339815191526020526103b6600160406000200154611e55565b612204565b005b346102c65760003660031901126102c6576003546040516001600160a01b039091168152602090f35b346102c65760203660031901126102c6576004358015158091036102c65760207f39859c8f67c497c006f34315993acf35de2c717eedc98bab67b7c1c2c88b0b2791610430611e1b565b6003805460ff60a01b191660a083901b60ff60a01b16179055604051908152a1005b346102c65760003660031901126102c65760405160408101908082106001600160401b038311176104ae576104aa9160405260058152640352e302e360dc1b60208201526040519182916020835260208301906118ad565b0390f35b634e487b7160e01b600052604160045260246000fd5b346102c65760203660031901126102c6576104aa6104e3600435611d90565b604051918291826119a4565b346102c65760003660031901126102c657602060405160008152f35b346102c65760003660031901126102c657602060ff60035460a01c166040519015158152f35b346102c65760003660031901126102c65760206040517f2b8f168f361ac1393a163ed4adfa899a87be7b7c71645167bdaddd822ae453c88152f35b346102c65760403660031901126102c6576001600160401b036004356024358281116102c6576105a0903690600401611aa6565b917fba291b016b54325d4ba91b6b61c37a98438bf460915c4e6dec8badd647f52443918260005260209260008051602061231c8339815191528452604060002033600052845260ff60406000205416156107c2575083156107b057610604826121cd565b60019560018201805460ff8160e81c16600481101561079a5780610773575060ff60e81b1916600160e81b179055600382019086116104ae576106518661064b8354611d00565b83611d3a565b600096601f87116001146106ec57506106a686807fff8c2b4f6c8f867de96bb3e313067100a72dd023077d21d852a5542a73614af2969798996000916106e1575b508160011b916000199060031b1c19161790565b90555b5493856040519260408452816040850152606084013760006060878401015242908201526060813396601f80199101168101030190a4005b90508501358a610692565b96601f1987169082600052866000209160005b81811061075e5750889950977fff8c2b4f6c8f867de96bb3e313067100a72dd023077d21d852a5542a73614af296979810610744575b5050600187811b0190556106a9565b84013560001960038a901b60f8161c191690558780610735565b868301358455928a01929188019188016106ff565b60405163e3962ba360e01b81526044916107919060048301906118ed565b60016024820152fd5b634e487b7160e01b600052602160045260246000fd5b60405163e215cd5360e01b8152600490fd5b6044906040519063e2517d3f60e01b82523360048301526024820152fd5b346102c65760403660031901126102c6576107f9611881565b60043560005260008051602061231c83398151915260205260406000209060018060a01b0316600052602052602060ff604060002054166040519015158152f35b346102c65760003660031901126102c65760206040517fba291b016b54325d4ba91b6b61c37a98438bf460915c4e6dec8badd647f524438152f35b346102c65760e03660031901126102c65760ff60243516602435036102c65760ff60443516604435036102c65760ff60643516606435036102c65760ff60843516608435036102c65760a4356001600160401b0381116102c6576108dd903690600401611aa6565b60c4356001600160401b0381116102c6576108fc903690600401611aa6565b3360009081527fd228a37582fdb543a91fb62a2966a8f16dde970ef117d2d36711e44336554afa602052604090205491929160ff16156110bb57336000526002602052604060002054801515806110a7575b6110795750606460ff602435161161103b57606460ff6044351611610ffe57606460ff81351611610fc757606460ff6084351611610f8b578115610f7957608c8211610f59576000926003549160ff8360a01c16610d99575b505050610a1960005493604051926109be84611a08565b600435845233602085015264ffffffffff4216604085015260ff60243516606085015260ff60443516608085015260ff6064351660a085015260ff6084351660c0850152600060e08501528415156101008501523691611a60565b610120820152604051610a2b81611a24565b60008152610140820152600160401b8310156104ae5760018301600055610a5183611bba565b919091610d8357805182556001820160018060a01b0360208301511681549064ffffffffff60a01b604085015160a01b1660ff60c81b606086015160c81b1660ff60d01b608087015160d01b169160ff60d81b60a088015160d81b169360ff60e01b60c089015160e01b169562ffffff60e81b16171717171717815560e0820151600481101561079a57610ae59082611c1b565b610100820151815460ff60f01b191690151560f01b60ff60f01b161790556101208101518051906001600160401b0382116104ae57610b3482610b2b6002870154611d00565b60028701611d3a565b602090601f8311600114610d11579180610b6a926101409594600092610d06575b50508160011b916000199060031b1c19161790565b60028401555b01518051906001600160401b0382116104ae57610b9d82610b946003860154611d00565b60038601611d3a565b602090601f8311600114610c97579180610bd092600394600092610c8c5750508160011b916000199060031b1c19161790565b9101555b600435600052600460205260406000208054600160401b8110156104ae57610c0191600182018155611b8c565b81549060031b9084821b91600019901b1916179055336000526002602052426040600020556040519060ff60243516825260ff60443516602083015260ff60643516604083015260ff608435166060830152151560808201524260a082015233917f29da1a32572e0bcc16650d837734e3399f7f8f97428ecd5697fb8f37080c080e60c060043593a4005b015190508780610b55565b906003840160005260206000209160005b601f1985168110610cee5750918391600193600395601f19811610610cd6575b505050811b01910155610bd4565b015160001983861b60f8161c19169055868080610cc8565b91926020600181928685015181550194019201610ca8565b015190508880610b55565b90601f198316916002860160005260206000209260005b818110610d6b575091600193918561014097969410610d52575b505050811b016002840155610b70565b015160001960f88460031b161c19169055878080610d42565b92936020600181928786015181550195019301610d28565b634e487b7160e01b600052600060045260246000fd5b92935090916001600160a01b03831615610f475760418103610f2f57506040516020810190600435825260ff60f81b8060243560f81b1660408301528060443560f81b1660418301528060643560f81b16604283015260843560f81b16604382015284866044830137610e1f604482878101600083820152036024810184520182611a3f565b51902090604051917f19457468657265756d205369676e6564204d6573736167653a0a3332000000006020840152603c830152603c82528160608101106001600160401b036060840111176104ae576060820160405281516020830120604082013560001a90601b8210610eff575b83602060009460ff60809560609586859a01521685840152803560a0840152013560c08201528380520160015afa15610ef3576000516001600160a01b03918216911603610ee1576001908380806109a7565b604051638baa579f60e01b8152600490fd5b6040513d6000823e3d90fd5b919060ff601b820111610f19579091601b90910190610e8e565b634e487b7160e01b600052601160045260246000fd5b6024906040519063058676ad60e31b82526004820152fd5b6040516356993a6d60e01b8152600490fd5b60405163de88ac6960e01b815260048101839052608c6024820152604490fd5b60405163c1ab4f8b60e01b8152600490fd5b608460405163812ca7a960e01b815260406004820152600a60448201526966696e616c53636f726560b01b606482015260ff8235166024820152fd5b608460405163812ca7a960e01b81526040600482015260046044820152637269736b60e01b606482015260ff606435166024820152fd5b608460405163812ca7a960e01b815260406004820152600a60448201526934b73737bb30ba34b7b760b11b606482015260ff604435166024820152fd5b608460405163812ca7a960e01b815260406004820152600b60448201526a666561736962696c69747960a81b606482015260ff602435166024820152fd5b61109261108b60249260015490611c3f565b4290611c4c565b6040519063e3c9f05560e01b82526004820152fd5b506110b460015482611c3f565b421061094e565b60405163e2517d3f60e01b81523360048201527f2b8f168f361ac1393a163ed4adfa899a87be7b7c71645167bdaddd822ae453c86024820152604490fd5b346102c65760003660031901126102c6576020600154604051908152f35b346102c65760003660031901126102c65760206040517fa7e0cd0f2772b23ee4c329892293a6bd99d48c306b094d6d008c9a8bb8b731e48152f35b346102c65760203660031901126102c65760043561116f816121cd565b6001810180543360008181527fb7db2dd08fcb62d0c9e08c51941cae53c267786a0b75803fb7960902fc8ef97d60205260409020546001600160a01b038316909114159060ff1681611254575b506112425760ff8160e81c16600481101561079a576002811461121b575060ff60e81b1916600160e91b179055546040514281523392907fd020d49421adb37b0ce4fcc666b5ae18122d5908f12e4d0d405988abcca3595690602090a4005b60405163e3962ba360e01b81526044916112399060048301906118ed565b60026024820152fd5b60405163688fd74760e01b8152600490fd5b905015856111bc565b346102c65760003660031901126102c6577f00000000000000000000000000000000000000000000000000000000000000006001600160a01b031630036112c85760206040517f360894a13ba1a3210667c828492db98dca3e2076cc3735a920a3ca505d382bbc8152f35b60405163703e46dd60e11b8152600490fd5b346102c65760203660031901126102c6577f5953b565c074c2cce1866b4e69c9efc4908556bb6fca70f735907c94d94055156040600435611319611e1b565b600154908060015582519182526020820152a1005b60403660031901126102c657611342611897565b6024356001600160401b0381116102c657366023820112156102c657611372903690602481600401359101611a60565b6001600160a01b037f000000000000000000000000000000000000000000000000000000000000000081163081149081156114ed575b506112c8576113b5611e1b565b8216916040516352d1902d60e01b8152602081600481875afa600091816114b9575b506113f557604051634c9c8ce360e01b815260048101859052602490fd5b7f360894a13ba1a3210667c828492db98dca3e2076cc3735a920a3ca505d382bbc908181036114a15750813b156114885780546001600160a01b03191684179055604051927fbc7cd75a20ee27fd9adebab32041f755214dbc6bffa90cc0225b39da2e5c2d3b600080a2815115611470576103bb9250612287565b50503461147957005b63b398979f60e01b8152600490fd5b604051634c9c8ce360e01b815260048101859052602490fd5b60249060405190632a87526960e21b82526004820152fd5b9091506020813d6020116114e5575b816114d560209383611a3f565b810103126102c6575190856113d7565b3d91506114c8565b9050817f360894a13ba1a3210667c828492db98dca3e2076cc3735a920a3ca505d382bbc54161415846113a8565b346102c65760403660031901126102c6576104aa6104e3602435600435611c59565b346102c65760003660031901126102c657602060405160028152f35b346102c65760403660031901126102c657611572611881565b336001600160a01b0382160361158e576103bb90600435612204565b60405163334bd91960e11b8152600490fd5b346102c65760403660031901126102c65760043560243580151581036102c6576115c8611e1b565b6115d1826121cd565b600181019160ff835460e81c16600481101561079a5760018103611652575060ff9190156116485761160560035b84611c1b565b54915460e81c169161161a60405180946118ed565b4260208401527f4e7a466d22e0edb01e9bbfb6c389fa91c177a18a495611290ff5e7cc52c607d560403394a4005b61160560026115ff565b604491156116885761168660035b60405163e3962ba360e01b81529261167c9060048501906118ed565b60248301906118ed565bfd5b6116866002611660565b346102c65760203660031901126102c6576116ab611aea565b506104aa6116c26116bd6004356121cd565b612116565b6040519182916020835260208301906118fa565b346102c65760203660031901126102c65760043560005260046020526040600020805461170281611b3c565b9160005b82811061171b57604051806104aa86826119a4565b8061174061173a61172e60019486611b8c565b90549060031b1c611bba565b50612116565b61174a8287611c07565b526117558186611c07565b5001611706565b346102c65760403660031901126102c6576103bb60043561177b611881565b908060005260008051602061231c8339815191526020526117a3600160406000200154611e55565b611fea565b346102c65760003660031901126102c6576020600054604051908152f35b346102c65760203660031901126102c65760043560005260008051602061231c8339815191526020526020600160406000200154604051908152f35b346102c65760203660031901126102c65760043560005260046020526020604060002054604051908152f35b346102c65760203660031901126102c6576004359063ffffffff60e01b82168092036102c657602091637965db0b60e01b8114908115611870575b5015158152f35b6301ffc9a760e01b14905083611869565b602435906001600160a01b03821682036102c657565b600435906001600160a01b03821682036102c657565b919082519283825260005b8481106118d9575050826000602080949584010152601f8019910116010190565b6020818301810151848301820152016118b8565b90600482101561079a5752565b906119a1916119516101608251845260ff602084015116602085015260ff604084015116604085015260ff606084015116606085015260ff608084015116608085015260a0830151908060a08601528401906118ad565b9160018060a01b0360c08301511660c082015260e082015160e082015261198161010080840151908301906118ed565b6101208083015115159082015261014080920151918184039101526118ad565b90565b6020808201906020835283518092526040830192602060408460051b8301019501936000915b8483106119da5750505050505090565b90919293949584806119f8600193603f198682030187528a516118fa565b98019301930191949392906119ca565b61016081019081106001600160401b038211176104ae57604052565b602081019081106001600160401b038211176104ae57604052565b90601f801991011681019081106001600160401b038211176104ae57604052565b9291926001600160401b0382116104ae5760405191611a89601f8201601f191660200184611a3f565b8294818452818301116102c6578281602093846000960137010152565b9181601f840112156102c6578235916001600160401b0383116102c657602083818601950101116102c657565b6001600160401b0381116104ae5760051b60200190565b60405190611af782611a08565b606061014083600080825280602083015280604083015280848301528060808301528360a08301528060c08301528060e0830152806101008301526101208201520152565b90611b4682611ad3565b611b536040519182611a3f565b8281528092611b64601f1991611ad3565b019060005b828110611b7557505050565b602090611b80611aea565b82828501015201611b69565b8054821015611ba45760005260206000200190600090565b634e487b7160e01b600052603260045260246000fd5b906000918254811015611bf35782805260021b7f290decd9548b62a8d60345a988386fc84ba6bc95484008f6362f93160ef3e563019190565b634e487b7160e01b83526032600452602483fd5b8051821015611ba45760209160051b010190565b90600481101561079a57815460ff60e81b191660e89190911b60ff60e81b16179055565b91908201809211610f1957565b91908203918211610f1957565b919060005490818410801590611cf8575b611ce157611c8c91611c7d859283611c3f565b90808211611cd9575b50611c4c565b611c9581611b3c565b9260005b828110611ca557505050565b80611cbd61173a611cb860019486611c3f565b611bba565b611cc78288611c07565b52611cd28187611c07565b5001611c99565b905038611c86565b50509050604051611cf181611a24565b6000815290565b508015611c6a565b90600182811c92168015611d30575b6020831014611d1a57565b634e487b7160e01b600052602260045260246000fd5b91607f1691611d0f565b90601f8111611d4857505050565b6000916000526020600020906020601f850160051c83019410611d86575b601f0160051c01915b828110611d7b57505050565b818155600101611d6f565b9092508290611d66565b906000549180158015611e13575b611e045782811115611dfe5750815b611db683611b3c565b9260005b818110611dc657505050565b80611de261173a611cb8600194611ddd8789611c4c565b611c3f565b611dec8288611c07565b52611df78187611c07565b5001611dba565b91611dad565b509050604051611cf181611a24565b508215611d9e565b3360009081527fb7db2dd08fcb62d0c9e08c51941cae53c267786a0b75803fb7960902fc8ef97d602052604081205460ff16156107c25750565b8060005260008051602061231c83398151915260205260406000203360005260205260ff60406000205416156107c25750565b6001600160a01b031660008181527fb7db2dd08fcb62d0c9e08c51941cae53c267786a0b75803fb7960902fc8ef97d602052604081205490919060008051602061231c8339815191529060ff16611f23578280526020526040822081835260205260408220600160ff1982541617905533917f2f8788117e7eff1d82e926ec794901d17c78024a50270940304540a733656f0d8180a4600190565b505090565b6001600160a01b031660008181527fd228a37582fdb543a91fb62a2966a8f16dde970ef117d2d36711e44336554afa60205260408120549091907f2b8f168f361ac1393a163ed4adfa899a87be7b7c71645167bdaddd822ae453c89060008051602061231c8339815191529060ff16611fe4578184526020526040832082845260205260408320600160ff198254161790557f2f8788117e7eff1d82e926ec794901d17c78024a50270940304540a733656f0d339380a4600190565b50505090565b9060009180835260008051602061231c83398151915280602052604084209260018060a01b03169283855260205260ff60408520541615600014611fe4578184526020526040832082845260205260408320600160ff198254161790557f2f8788117e7eff1d82e926ec794901d17c78024a50270940304540a733656f0d339380a4600190565b9060405191826000825461208481611d00565b908184526020946001916001811690816000146120f457506001146120b5575b5050506120b392500383611a3f565b565b600090815285812095935091905b8183106120dc5750506120b393508201013880806120a4565b855488840185015294850194879450918301916120c3565b925050506120b394925060ff191682840152151560051b8201013880806120a4565b61211e611aea565b5080549060018101549060ff90818360e81c16916040519461213f86611a08565b8552808460c81c166020860152808460d01c166040860152808460d81c166060860152808460e01c16608086015261217960028301612071565b60a086015260018060a01b03841660c086015264ffffffffff8460a01c1660e0860152600483101561079a576121c49360039361010087015260f01c16151561012085015201612071565b61014082015290565b600054808210156121e657506121e290611bba565b5090565b60449250604051916363a056dd60e01b835260048301526024820152fd5b9060009180835260008051602061231c83398151915280602052604084209260018060a01b03169283855260205260ff604085205416600014611fe457818452602052604083208284526020526040832060ff1981541690557ff6391f5c32d9c69d2a47ea670b442974b53935d1edc7fd64eb21e047a839171b339380a4600190565b9060008091602081519101845af48080612308575b156122bd5750506040513d81523d6000602083013e60203d82010160405290565b156122e457604051639996b31560e01b81526001600160a01b039091166004820152602490fd5b3d156122f6576040513d6000823e3d90fd5b60405163d6bda27560e01b8152600490fd5b503d15158061229c5750813b151561229c56fe02dd7bc7dec4dceedda775e58dd541e08a116c6c53815c0bd028192f7b626800a2646970667358221220c2a20028b49c1525c1e65e3802410dd73b5ab89d8bd123b091396da7e594c68a64736f6c63430008180033",
  "linkReferences": {},
  "deployedLinkReferences": {}
}