{
  "_format": "hh-sol-artifact-1",
  "contractName": "AgentJury",
  "sourceName": "src/AgentJury.sol",
  "abi": [
    {
      "inputs": [
        {
          "internalType": "uint256",
          "name": "_evaluationFee",
          "type": "uint256"
        }
      ],
      "stateMutability": "nonpayable",
      "type": "constructor"
    },
    {
      "anonymous": false,
      "inputs": [
        {
          "indexed": false,
          "internalType": "uint256",
          "name": "oldFee",
          "type": "uint256"
        },
        {
          "indexed": false,
          "internalType": "uint256",
          "name": "newFee",
          "type": "uint256"
        }
      ],
      "name": "FeeUpdated",
      "type": "event"
    },
    {
      "anonymous": false,
      "inputs": [
        {
          "indexed": true,
          "internalType": "uint256",
          "name": "index",
          "type": "uint256"
        },
        {
          "indexed": true,
          "internalType": "bytes32",
          "name": "caseHash",
          "type": "bytes32"
        },
        {
          "indexed": true,
          "internalType": "address",
          "name": "submitter",
          "type": "address"
        },
        {
          "indexed": false,
          "internalType": "uint8",
          "name": "finalScore",
          "type": "uint8"
        },
        {
          "indexed": false,
          "internalType": "string",
          "name": "shortVerdict",
          "type": "string"
        }
      ],
      "name": "VerdictSaved",
      "type": "event"
    },
    {
      "anonymous": false,
      "inputs": [
        {
          "indexed": true,
          "internalType": "address",
          "name": "to",
          "type": "address"
        },
        {
          "indexed": false,
          "internalType": "uint256",
          "name": "amount",
          "type": "uint256"
        }
      ],
      "name": "Withdrawn",
      "type": "event"
    },
    {
      "inputs": [],
      "name": "evaluationFee",
      "outputs": [
        {
          "internalType": "uint256",
          "name": "",
          "type": "uint256"
        }
      ],
      "stateMutability": "view",
      "type": "function"
    },
    {
      "inputs": [
        {
          "internalType": "uint256",
          "name": "index",
          "type": "uint256"
        }
      ],
      "name": "getVerdict",
      "outputs": [
        {
          "components": [
            {
              "internalType": "bytes32",
              "name": "caseHash",
              "type": "bytes32"
            },
            {
              "internalType": "uint8",
              "name": "feasibilityScore",
              "type": "uint8"
            },
            {
              "internalType": "uint8",
              "name": "innovationScore",
              "type": "uint8"
            },
            {
              "internalType": "uint8",
              "name": "riskScore",
              "type": "uint8"
            },
            {
              "internalType": "uint8",
              "name": "finalScore",
              "type": "uint8"
            },
            {
              "internalType": "string",
              "name": "shortVerdict",
              "type": "string"
            },
            {
              "internalType": "address",
              "name": "submitter",
              "type": "address"
            },
            {
              "internalType": "uint256",
              "name": "timestamp",
              "type": "uint256"
            }
          ],
          "internalType": "struct AgentJury.VerdictRecord",
          "name": "",
          "type": "tuple"
        }
      ],
      "stateMutability": "view",
      "type": "function"
    },
    {
      "inputs": [],
      "name": "getVerdictCount",
      "outputs": [
        {
          "internalType": "uint256",
          "name": "",
          "type": "uint256"
        }
      ],
      "stateMutability": "view",
      "type": "function"
    },
    {
      "inputs": [],
      "name": "owner",
      "outputs": [
        {
          "internalType": "address",
          "name": "",
          "type": "address"
        }
      ],
      "stateMutability": "view",
      "type": "function"
    },
    {
      "inputs": [
        {
          "internalType": "bytes32",
          "name": "caseHash",
          "type": "bytes32"
        },
        {
          "internalType": "uint8",
          "name": "feasibilityScore",
          "type": "uint8"
        },
        {
          "internalType": "uint8",
          "name": "innovationScore",
          "type": "uint8"
        },
        {
          "internalType": "uint8",
          "name": "riskScore",
          "type": "uint8"
        },
        {
          "internalType": "uint8",
          "name": "finalScore",
          "type": "uint8"
        },
        {
          "internalType": "string",
          "name": "shortVerdict",
          "type": "string"
        }
      ],
      "name": "saveVerdict",
      "outputs": [],
      "stateMutability": "payable",
      "type": "function"
    },
    {
      "inputs": [
        {
          "internalType": "uint256",
          "name": "_newFee",
          "type": "uint256"
        }
      ],
      "name": "setFee",
      "outputs": [],
      "stateMutability": "nonpayable",
      "type": "function"
    },
    {
      "inputs": [],
      "name": "totalRevenue",
      "outputs": [
        {
          "internalType": "uint256",
          "name": "",
          "type": "uint256"
        }
      ],
      "stateMutability": "view",
      "type": "function"
    },
    {
      "inputs": [],
      "name": "withdraw",
      "outputs": [],
      "stateMutability": "nonpayable",
      "type": "function"
    }
  ],
  "bytecode": "0x60806040523480156200001157600080fd5b50604051620017b7380380620017b78339818101604052810190620000379190620000c5565b336000806101000a81548173ffffffffffffffffffffffffffffffffffffffff021916908373ffffffffffffffffffffffffffffffffffffffff1602179055508060018190555050620000f7565b600080fd5b6000819050919050565b6200009f816200008a565b8114620000ab57600080fd5b50565b600081519050620000bf8162000094565b92915050565b600060208284031215620000de57620000dd62000085565b5b6000620000ee84828501620000ae565b91505092915050565b6116b080620001076000396000f3fe60806040526004361061007b5760003560e01c806369fe0e2d1161004e57806369fe0e2d1461011b5780638da5cb5b14610144578063bf2d9e0b1461016f578063ec1761e01461019a5761007b565b80632a6e12f11461008057806333f3e74b146100ab578063395688d8146100e85780633ccfd60b14610104575b600080fd5b34801561008c57600080fd5b506100956101c5565b6040516100a29190610abb565b60405180910390f35b3480156100b757600080fd5b506100d260048036038101906100cd9190610b0c565b6101d2565b6040516100df9190610cfe565b60405180910390f35b61010260048036038101906100fd9190610ddd565b6103c6565b005b34801561011057600080fd5b50610119610712565b005b34801561012757600080fd5b50610142600480360381019061013d9190610b0c565b61092f565b005b34801561015057600080fd5b50610159610a08565b6040516101669190610e9b565b60405180910390f35b34801561017b57600080fd5b50610184610a2c565b6040516101919190610abb565b60405180910390f35b3480156101a657600080fd5b506101af610a32565b6040516101bc9190610abb565b60405180910390f35b6000600380549050905090565b6101da610a38565b6003805490508210610221576040517f08c379a000000000000000000000000000000000000000000000000000000000815260040161021890610f13565b60405180910390fd5b6003828154811061023557610234610f33565b5b906000526020600020906005020160405180610100016040529081600082015481526020016001820160009054906101000a900460ff1660ff1660ff1681526020016001820160019054906101000a900460ff1660ff1660ff1681526020016001820160029054906101000a900460ff1660ff1660ff1681526020016001820160039054906101000a900460ff1660ff1660ff1681526020016002820180546102dd90610f91565b80601f016020809104026020016040519081016040528092919081815260200182805461030990610f91565b80156103565780601f1061032b57610100808354040283529160200191610356565b820191906000526020600020905b81548152906001019060200180831161033957829003601f168201915b505050505081526020016003820160009054906101000a900473ffffffffffffffffffffffffffffffffffffffff1673ffffffffffffffffffffffffffffffffffffffff1673ffffffffffffffffffffffffffffffffffffffff1681526020016004820154815250509050919050565b60015434101561040b576040517f08c379a00000000000000000000000000000000000000000000000000000000081526004016104029061100e565b60405180910390fd5b608c828290501115610452576040517f08c379a00000000000000000000000000000000000000000000000000000000081526004016104499061107a565b60405180910390fd5b60648660ff161115801561046a575060648560ff1611155b801561047a575060648460ff1611155b801561048a575060648360ff1611155b6104c9576040517f08c379a00000000000000000000000000000000000000000000000000000000081526004016104c0906110e6565b60405180910390fd5b34600260008282546104db9190611135565b9250508190555060036040518061010001604052808981526020018860ff1681526020018760ff1681526020018660ff1681526020018560ff16815260200184848080601f016020809104026020016040519081016040528093929190818152602001838380828437600081840152601f19601f8201169050808301925050505050505081526020013373ffffffffffffffffffffffffffffffffffffffff1681526020014281525090806001815401808255809150506001900390600052602060002090600502016000909190919091506000820151816000015560208201518160010160006101000a81548160ff021916908360ff16021790555060408201518160010160016101000a81548160ff021916908360ff16021790555060608201518160010160026101000a81548160ff021916908360ff16021790555060808201518160010160036101000a81548160ff021916908360ff16021790555060a08201518160020190816106509190611344565b5060c08201518160030160006101000a81548173ffffffffffffffffffffffffffffffffffffffff021916908373ffffffffffffffffffffffffffffffffffffffff16021790555060e0820151816004015550503373ffffffffffffffffffffffffffffffffffffffff168760016003805490506106ce9190611416565b7f38724c27ca32517ddf083a4def51bd8f075e7124e51b22a8b2639d14b278ca3e86868660405161070193929190611495565b60405180910390a450505050505050565b60008054906101000a900473ffffffffffffffffffffffffffffffffffffffff1673ffffffffffffffffffffffffffffffffffffffff163373ffffffffffffffffffffffffffffffffffffffff16146107a0576040517f08c379a000000000000000000000000000000000000000000000000000000000815260040161079790611513565b60405180910390fd5b6000479050600081116107e8576040517f08c379a00000000000000000000000000000000000000000000000000000000081526004016107df9061157f565b60405180910390fd5b600060028190555060008060009054906101000a900473ffffffffffffffffffffffffffffffffffffffff1673ffffffffffffffffffffffffffffffffffffffff1682604051610837906115d0565b60006040518083038185875af1925050503d8060008114610874576040519150601f19603f3d011682016040523d82523d6000602084013e610879565b606091505b50509050806108bd576040517f08c379a00000000000000000000000000000000000000000000000000000000081526004016108b490611631565b60405180910390fd5b60008054906101000a900473ffffffffffffffffffffffffffffffffffffffff1673ffffffffffffffffffffffffffffffffffffffff167f7084f5476618d8e60b11ef0d7d3f06914655adb8793e28ff7f018d4c76d505d5836040516109239190610abb565b60405180910390a25050565b60008054906101000a900473ffffffffffffffffffffffffffffffffffffffff1673ffffffffffffffffffffffffffffffffffffffff163373ffffffffffffffffffffffffffffffffffffffff16146109bd576040517f08c379a00000000000000000000000000000000000000000000000000000000081526004016109b490611513565b60405180910390fd5b60006001549050816001819055507f528d9479e9f9889a87a3c30c7f7ba537e5e59c4c85a37733b16e57c62df6130281836040516109fc929190611651565b60405180910390a15050565b60008054906101000a900473ffffffffffffffffffffffffffffffffffffffff1681565b60025481565b60015481565b60405180610100016040528060008019168152602001600060ff168152602001600060ff168152602001600060ff168152602001600060ff16815260200160608152602001600073ffffffffffffffffffffffffffffffffffffffff168152602001600081525090565b6000819050919050565b610ab581610aa2565b82525050565b6000602082019050610ad06000830184610aac565b92915050565b600080fd5b600080fd5b610ae981610aa2565b8114610af457600080fd5b50565b600081359050610b0681610ae0565b92915050565b600060208284031215610b2257610b21610ad6565b5b6000610b3084828501610af7565b91505092915050565b6000819050919050565b610b4c81610b39565b82525050565b600060ff82169050919050565b610b6881610b52565b82525050565b600081519050919050565b600082825260208201905092915050565b60005b83811015610ba8578082015181840152602081019050610b8d565b60008484015250505050565b6000601f19601f8301169050919050565b6000610bd082610b6e565b610bda8185610b79565b9350610bea818560208601610b8a565b610bf381610bb4565b840191505092915050565b600073ffffffffffffffffffffffffffffffffffffffff82169050919050565b6000610c2982610bfe565b9050919050565b610c3981610c1e565b82525050565b610c4881610aa2565b82525050565b600061010083016000830151610c676000860182610b43565b506020830151610c7a6020860182610b5f565b506040830151610c8d6040860182610b5f565b506060830151610ca06060860182610b5f565b506080830151610cb36080860182610b5f565b5060a083015184820360a0860152610ccb8282610bc5565b91505060c0830151610ce060c0860182610c30565b5060e0830151610cf360e0860182610c3f565b508091505092915050565b60006020820190508181036000830152610d188184610c4e565b905092915050565b610d2981610b39565b8114610d3457600080fd5b50565b600081359050610d4681610d20565b92915050565b610d5581610b52565b8114610d6057600080fd5b50565b600081359050610d7281610d4c565b92915050565b600080fd5b600080fd5b600080fd5b60008083601f840112610d9d57610d9c610d78565b5b8235905067ffffffffffffffff811115610dba57610db9610d7d565b5b602083019150836001820283011115610dd657610dd5610d82565b5b9250929050565b600080600080600080600060c0888a031215610dfc57610dfb610ad6565b5b6000610e0a8a828b01610d37565b9750506020610e1b8a828b01610d63565b9650506040610e2c8a828b01610d63565b9550506060610e3d8a828b01610d63565b9450506080610e4e8a828b01610d63565b93505060a088013567ffffffffffffffff811115610e6f57610e6e610adb565b5b610e7b8a828b01610d87565b925092505092959891949750929550565b610e9581610c1e565b82525050565b6000602082019050610eb06000830184610e8c565b92915050565b600082825260208201905092915050565b7f496e646578206f7574206f6620626f756e647300000000000000000000000000600082015250565b6000610efd601383610eb6565b9150610f0882610ec7565b602082019050919050565b60006020820190508181036000830152610f2c81610ef0565b9050919050565b7f4e487b7100000000000000000000000000000000000000000000000000000000600052603260045260246000fd5b7f4e487b7100000000000000000000000000000000000000000000000000000000600052602260045260246000fd5b60006002820490506001821680610fa957607f821691505b602082108103610fbc57610fbb610f62565b5b50919050565b7f496e73756666696369656e742066656500000000000000000000000000000000600082015250565b6000610ff8601083610eb6565b915061100382610fc2565b602082019050919050565b6000602082019050818103600083015261102781610feb565b9050919050565b7f5665726469637420746f6f206c6f6e6700000000000000000000000000000000600082015250565b6000611064601083610eb6565b915061106f8261102e565b602082019050919050565b6000602082019050818103600083015261109381611057565b9050919050565b7f53636f726573206d75737420626520302d313030000000000000000000000000600082015250565b60006110d0601483610eb6565b91506110db8261109a565b602082019050919050565b600060208201905081810360008301526110ff816110c3565b9050919050565b7f4e487b7100000000000000000000000000000000000000000000000000000000600052601160045260246000fd5b600061114082610aa2565b915061114b83610aa2565b925082820190508082111561116357611162611106565b5b92915050565b7f4e487b7100000000000000000000000000000000000000000000000000000000600052604160045260246000fd5b60008190508160005260206000209050919050565b60006020601f8301049050919050565b600082821b905092915050565b6000600883026111fa7fffffffffffffffffffffffffffffffffffffffffffffffffffffffffffffffff826111bd565b61120486836111bd565b95508019841693508086168417925050509392505050565b6000819050919050565b600061124161123c61123784610aa2565b61121c565b610aa2565b9050919050565b6000819050919050565b61125b83611226565b61126f61126782611248565b8484546111ca565b825550505050565b600090565b611284611277565b61128f818484611252565b505050565b5b818110156112b3576112a860008261127c565b600181019050611295565b5050565b601f8211156112f8576112c981611198565b6112d2846111ad565b810160208510156112e1578190505b6112f56112ed856111ad565b830182611294565b50505b505050565b600082821c905092915050565b600061131b600019846008026112fd565b1980831691505092915050565b6000611334838361130a565b9150826002028217905092915050565b61134d82610b6e565b67ffffffffffffffff81111561136657611365611169565b5b6113708254610f91565b61137b8282856112b7565b600060209050601f8311600181146113ae576000841561139c578287015190505b6113a68582611328565b86555061140e565b601f1984166113bc86611198565b60005b828110156113e4578489015182556001820191506020850194506020810190506113bf565b8683101561140157848901516113fd601f89168261130a565b8355505b6001600288020188555050505b505050505050565b600061142182610aa2565b915061142c83610aa2565b925082820390508181111561144457611443611106565b5b92915050565b61145381610b52565b82525050565b82818337600083830152505050565b60006114748385610eb6565b9350611481838584611459565b61148a83610bb4565b840190509392505050565b60006040820190506114aa600083018661144a565b81810360208301526114bd818486611468565b9050949350505050565b7f4f6e6c79206f776e657200000000000000000000000000000000000000000000600082015250565b60006114fd600a83610eb6565b9150611508826114c7565b602082019050919050565b6000602082019050818103600083015261152c816114f0565b9050919050565b7f4e6f2066756e6473000000000000000000000000000000000000000000000000600082015250565b6000611569600883610eb6565b915061157482611533565b602082019050919050565b600060208201905081810360008301526115988161155c565b9050919050565b600081905092915050565b50565b60006115ba60008361159f565b91506115c5826115aa565b600082019050919050565b60006115db826115ad565b9150819050919050565b7f5472616e73666572206661696c65640000000000000000000000000000000000600082015250565b600061161b600f83610eb6565b9150611626826115e5565b602082019050919050565b6000602082019050818103600083015261164a8161160e565b9050919050565b60006040820190506116666000830185610aac565b6116736020830184610aac565b939250505056fea26469706673582212201ecf4d7a643017b99553cf8b52e1c207b1142fa50968cf26ff324a22854634f464736f6c63430008180033",
  "linkReferences": {},
  "deployedLinkReferences": {}
}